:020000040800F2
:10000000501F0010E1D70108C9050008CB05000802
:10001000CF050008D3050008D70500080000000040
:1000200000000000000000000000000021030008A4
:10003000DB050008000000007D03000809D401086A
:10004000FBD70108FBD70108FBD70108FBD7010844
:10005000FBD70108FBD70108FBD70108FBD7010834
:10006000FBD70108FBD70108D74C0008FBD70108D4
:10007000FBD70108FBD70108FBD70108FBD7010814
:10008000FBD70108FBD70108FBD70108FBD7010804
:1000900003130108FBD70108FBD70108FBD70108B0
:1000A000FBD70108FBD70108FBD70108FBD70108E4
:1000B000FBD70108FBD70108FBD70108FBD70108D4
:1000C000FBD70108FBD70108FBD70108FBD70108C4
:1000D000FBD70108EF76000871D6010825D7010883
:1000E000678E0008FBD70108FBD70108FBD7010882
:1000F000FBD70108FBD70108FBD70108FBD7010894
:10010000FBD70108CDB20108FBD70108FBD70108D6
:10011000FBD70108FBD70108FBD70108FBD7010873
:10012000FBD70108FBD70108FBD70108FBD7010863
:10013000FBD70108FBD70108FBD70108FBD7010853
:10014000FBD70108FBD70108FBD70108FBD7010843
:10015000FBD70108FBD70108FBD7010845D70108E9
:10016000FBD70108FBD70108FBD70108FBD7010823
:10017000FBD70108FBD70108FBD70108FBD7010813
:10018000FBD70108FBD7010800F002F800F0B8F82F
:100190000AA090E8000C82448344AAF10107DA45E2
:1001A00001D100F0ADF8AFF2090EBAE80F0013F07C
:1001B000010F18BFFB1A43F0010318478CDA040043
:1001C000ACDA04000A444FF0000C10F8013B13F0C5
:1001D000070408BF10F8014B1D1108BF10F8015BA0
:1001E000641E05D010F8016B641E01F8016BF9D193
:1001F00013F0080F1EBF10F8014BAD1C0C1B09D1EA
:100200006D1E58BF01F801CBFAD505E014F8016B5B
:1002100001F8016B6D1EF9D59142D6D370470000ED
:100220000023002400250026103A28BF78C1FBD8FF
:10023000520728BF30C148BF0B6070476E291EF0BF
:10024000E48070291DF07B84662922F0F6826529FE
:1002500022F0F382672922F0F082612922F0EF82F6
:1002600003681B0A28BF41F0800169291DF0EC8357
:1002700064291DF0E98375291DF0E6836F291EF0BE
:10028000F18378291DF04784E9291EF08B83E42946
:100290001EF08883F5291EF08583EF291EF0EE837A
:1002A000F8291DF046840368DB0928BF41F080016E
:1002B00063291EF0FA8273291EF0FF82E3291FF0E2
:1002C000DB80F3291FF0E080002070471FB522F08B
:1002D000AAFA9DE803001DF075FF1DF0D8FD1EF081
:1002E00093FE04000020002121F08CFB401C606084
:1002F0000020002121F09CFBE0601FBD10B510BD67
:100300001FF019FB1146FFF7E1FF00F08BF81FF01B
:100310005DFD03B4FFF7F2FF03BC1DF0F5F800002C
:100320002C4B19680868B0E8F04F80F30988BFF3D8
:100330006F8F4FF0000080F31188704700000000BD
:1003400008480068006880F308884FF0000080F3D8
:10035000148862B661B6BFF34F8FBFF36F8F00DFB3
:1003600000BF00BF08ED00E0DFF80C00016841F4B9
:1003700070010160704700BF88ED00E0EFF3098075
:10038000BFF36F8F134B1A681EF0100F08BF20EDDC
:10039000108A20E9F04F106009B44FF0500080F34C
:1003A0001188BFF34F8FBFF36F8F13F040F94FF0F9
:1003B000000080F3118809BC19680868B0E8F04FA4
:1003C0001EF0100F08BFB0EC108A80F30988BFF34D
:1003D0006F8F704754030010EFF3058070470000E3
:1003E00030BF72B6704762B6704780F308887047B6
:1003F0000B49D1F800C04A685CF8043B1068184407
:1004000042F8040B8C4528BFA1F1DC0C8A4228BFBE
:10041000A1F1DC02C1F800C04A6020F00040704742
:10042000E418001010B52DED048B86B0454B0FCBB2
:1004300002AC0FC44FF440701BF028F8A8201CF049
:10044000EBFF4FF461301DF071F84FF4E13007F02D
:10045000FFF84FF4E1301DF0BBF84FF4E1301DF030
:1004600012F904F0C5FC02A814F0C7FE14F0BFFE98
:10047000044621F0C7FD41EC190B9FED330B53EC03
:10048000102B21F0E5FB41EC180B53EC182B30A09E
:100490001DF068FA10F094FF11F030F828B135A083
:1004A0001DF060FA0820394908703948006811F0D9
:1004B00056F837480068406D411C542011F083F80D
:1004C000002014F043FF28B132A01DF04BFA0520A4
:1004D0003649087019F0BCF804F04EFC2C4800684E
:1004E000808F80B200210C230622CDE90010052167
:1004F000002010F085FE09F0E9F804F0A1FA08F0F8
:10050000F1FB4FF496701CF0E4FF40F6B831062082
:1005100008F042FA002005F0CBFC002024490880B6
:100520002448012100234022CDE9001022A12548C2
:1005300012F0D5FC13F0F7F9002006B0BDEC048BE7
:1005400010BD00004029020800000000000090409B
:100550000D0A2D3E20467265654865617053697AC3
:1005600065203D2020252E3366204B62203C2D0D3A
:100570000A0D0A002D3E20454550524F4D20455250
:10058000524F5221203C2D0D0A0000007100001036
:10059000500300102D3E2053442043415244204537
:1005A00052524F5221203C2D0D0A000070000010C5
:1005B0005C020010740000107653746172745F74F2
:1005C00061736B00052B0008704700BFFEE700BF9A
:1005D000FEE700BFFEE700BFFEE770470CB5002056
:1005E000019000907648006840F4803074490860BB
:1005F00000BF7348006800F4003000900198401C70
:100600000190009818B90198B0F5A04FF1D16C484D
:10061000006800F4003010B10120009001E00020DB
:1006200000900098012846D165484030006840F0AD
:1006300080506349403108606248006840F440409F
:10064000604908605E48083000685D49083108600C
:100650000846006840F4004008600846006840F41E
:10066000A05008605848091F0860081F006840F043
:100670008070091F086000BF5148006800F00070DA
:100680000028F9D040F20570504908604C48083005
:10069000006820F003004A490831086008460068F5
:1006A00040F00200086000BF45480830006800F0D4
:1006B0000C000828F8D10CBD10B54548006840F47E
:1006C0007000434908603E48006840F001003C4922
:1006D000086000203A4908310860394800683D49FF
:1006E0000840374908603C48091D0860081F006839
:1006F00020F48020091F0860002031490C31086077
:10070000FFF76CFF4FF0006031498039086010BD81
:1007100070B500200022022300240221284D083554
:100720002D6805F00C0020B1042806D0082834D12B
:1007300007E02A4D2A4E356033E02A4D284E3560B9
:100740002FE01F4D2D1D2D68C5F380541C4D2D1D10
:100750002D6805F03F0154B1224DB5FBF1F5184E5F
:10076000361D3668C6F3881605FB06F209E01B4DF8
:10077000B5FBF1F5124E361D3668C6F3881605FB3B
:1007800006F20F4D2D1D2D68C5F301456D1C6B0044
:10079000B2FBF3F5124E356003E0104D104E35609C
:1007A00000BF00BF064D08352D68C5F303150E4E7A
:1007B000705D0B4D2D68C540094E356070BD000061
:1007C000003802400070004008544007003C0240DE
:1007D00088ED00E0FFFFF6FE103000240024F40056
:1007E0000000001000127A00040000100FB400B5E1
:1007F0008BB00DA80090282101A8009B0C9A1DF039
:1008000097F8002000900023052201A9FE48006807
:1008100011F008FC0BB05DF814FB10B52F2004F0AC
:10082000E5F8044622460621002005F033FC4FF48B
:100830007A7012F0CEFDF548006850B10020F449FE
:10084000096808654FF40071F248006811F025F856
:1008500010BD032004F024FA0120EF490860EF499D
:10086000C1F89002EE490860091D0860091D086082
:100870002A2004F0BBF8044622460621002005F099
:1008800009FCE8480078032802DA0120E5490870ED
:100890000020DF4909680865DD48006890F85020AD
:1008A0001921002005F089FED9480068016D50200B
:1008B00010F089FE002303220221DB48006813F0B8
:1008C00057FDDA48006848B1D9A0FFF78FFFD74835
:1008D000006812F052FB0020D449086000BFB7E75F
:1008E00070B52DED028B82B0044600250020CC4966
:1008F000083108604FF47A6012F06BFD41F28830E5
:1009000001231A4699040090C248006811F0A5F826
:100910000FF07DFDB0EE408AF0EE608A51EC180BCE
:1009200021F0A8F82060D4ED000AB948006890EDE5
:10093000160AB8EEC00AF4EEC00AF1EE10FA58D268
:100940000026002004F080F925E04FF47A7012F0C0
:1009500040FD41F2707001231A46D9020090AD4863
:10096000006811F07AF8054605F4006058B10FF000
:100970004EFDB0EE408AF0EE608A51EC180B21F08B
:1009800079F8206007E00420A649087000209F49FC
:100990000860FFF742FFD4ED000A9D48006890ED23
:1009A000110AB8EEC00AF4EEC00AF1EE10FACCD388
:1009B000002004F075F94FF4FA6012F00AFD0FF010
:1009C00026FDB0EE408AF0EE608A51EC180B21F063
:1009D00051F8206094ED000A10EE101A084621F03C
:1009E000B1FE41EC180B53EC182B94A0FFF7FEFE60
:1009F00000BF01208A490831086002B0BDEC028BBB
:100A000070BD30B52DED068B81B0002501208249E7
:100A1000086000208149C1F89002012080490860E7
:100A200025E04FF4FA6012F0D4FC00200FF0D1FE64
:100A3000B0EE408AF0EE608A75490968896C744AA4
:100A40001268126C01FB02F021F0C5FA41EC1A0B9E
:100A50009FED7E0B53EC102B21F024FB41EC190B86
:100A600053EC182B21F0E2FA00D201E000BFD8E7E6
:100A700000BF282003F0BAFF0446224606210020CA
:100A800005F008FB00206449086001206349C1F8B3
:100A900090024FF4FA6001231A46D90300905D4892
:100AA000006810F0DAFF00205D4908604FF4FA603A
:100AB00001231A46990300905648006810F0CDFFB4
:100AC000002419E02046641C0A2800DD18E00120FB
:100AD000534908604FF4FA6012F07BFC00205D4936
:100AE000C1F898024FF4FA6001231A469903009066
:100AF0004848006810F0B1FF574800680128E1D06D
:100B000000BF55480068012802D1092045490870F6
:100B10005148001D0068012802D10A20414908708F
:100B200001B0BDEC068B30BD10B52DED048B00205F
:100B30000FF04FFEB0EE409AF0EE609A1FF00BFE01
:100B4000B0EE408AF0EE608A9FED440B53EC102B20
:100B500051EC180B21F06AFA1BD218E00FF03CFAA6
:100B600000200FF036FEB0EE409AF0EE609A1FF0D3
:100B7000F2FDB0EE408AF0EE608A9FED3A0B53EC46
:100B8000102B51EC180B21F051FA00D200E0E5E7F0
:100B900000BFBDEC048B10BDA6B0002124912591AF
:100BA0009FED320A8DED230A0020229030A00068CC
:100BB00021902FA00068209000201F9000BF00BF50
:100BC00013480068806B00287DD14FF47A7012F0D2
:100BD00000FC00201049086001201049C1F8900273
:100BE00000200F49086001201A49C1F89C02212009
:100BF00003F0FCFE024606211690002005F04AFA9A
:100C0000FFF792FF222035E0A4000010180000102A
:100C100050030010A800001094024242000042421B
:100C200098824242700000108C000010800000107A
:100C3000504F574552204F464600000064466F64AF
:100C4000646572206F6B20252E3166007B14AE47E1
:100C5000E17A843F008042421802404200000000D6
:100C6000000014407B14AE47E17A943F000000007E
:100C70000C0C000003F0BAFE02460621169000207C
:100C800005F008FAFB48FFF72BFEF4E30020249060
:100C90002590232003F0AAFE02460621169000208C
:100CA00005F0F8F9FFF7ADFEF3480068006C0B9013
:100CB00021F091F9CDE90E01EF480068C06C099070
:100CC00021F089F900E0FCE39FEDEC0B53EC102BD5
:100CD000CDE90A019DED0A0B51EC100B21F0E2F970
:100CE000CDE90C019DED0E0B53EC102B9DED0C0B83
:100CF00051EC100B21F0D6F99FEDE00B53EC102BCB
:100D0000CDE910019DED100B51EC100B21F0CAF94B
:100D1000CDE9140100200FF05CFD8DED120B9DED6F
:100D2000140B53EC102B9DED120B51EC100B21F01A
:100D30007DF966D3D0480068006C40000F9021F028
:100D40004AF99FEDCE0B53EC102BCDE910019DED30
:100D5000100B51EC100B21F0A5F9CDE91401002086
:100D60000FF037FD8DED120B9DED140B53EC102B96
:100D70009DED120B51EC100B21F092FA42D224207F
:100D800003F034FE024606211690002005F082F999
:100D90000120BC4908600020BB49C1F89002012035
:100DA000BA4908602CE040F2DC5012F012FBB24865
:100DB0000068C06CB0490968096C48430F9021F085
:100DC0000AF91FED5E0B53EC102BCDE910019DEDE0
:100DD000100B51EC100B21F065F9CDE91401002046
:100DE0000FF0F7FC8DED120B9DED140B53EC102B57
:100DF0009DED120B51EC100B21F018F900D200E020
:100E0000D1E7B1E214201690252003F0EFFD024651
:100E100006211590002005F03DF902200FF0D9FCC5
:100E20008DED140B9DED140B51EC100B20F022FEF8
:100E30002390239821F086FC0A46014694480068D6
:100E4000431C934C15902360924B03EBC00006C0EB
:100E500020460068142190FBF1F201FB12000028EB
:100E600076D121460860184690ED000B8DED140BED
:100E70008DED120B0120119042E08649119801EB93
:100E8000C00090ED000B8DED0E0B9DED0E0B53ECA5
:100E9000102B9DED120B51EC100B21F0C7F808D26E
:100EA0007C49119801EBC00090ED000B8DED120B09
:100EB00003E09DED120B8DED120B7649119801EBBD
:100EC000C00090ED000B8DED0E0B9DED0E0B53EC65
:100ED000102B9DED140B51EC100B21F0E1F908D211
:100EE0006C49119801EBC00090ED000B8DED140BD7
:100EF00003E09DED140B8DED140B1198401C119027
:100F000011981428B9DB9DED140B53EC102B9DEDBB
:100F1000120B51EC100B20F0DFFDCDE90E019DED21
:100F20000E0B51EC100B21F027F8119000EBD07054
:100F3000401000EB800040004F49096808644E48AB
:100F40000068006C01461190402010F03CFB00BF8F
:100F500000204E49091D0860262003F047FD024687
:100F600006211590002005F095F80FE04248006832
:100F7000C06B49490844C117CDE9240107F0B6FE0A
:100F800024A807F08CFE012800D104E01698411E29
:100F900016910028EAD100BF169810B903203F49E6
:100FA000087001203E4908604FF4FA5001231A46A8
:100FB000990500903B48006810F04FFD3A48007AD0
:100FC0008DF884003848007C8DF885003648007D17
:100FD0008DF880003448007E8DF881003248016829
:100FE0008069314A5269304B1B69CDE90032CDE945
:100FF00002012D48806815902B48406814900246E5
:101000002AA13148159B1CF0B9FC239821F09AFBCA
:10101000CDE91401CDE900012CA117A8DDE92423B5
:101020001CF0ACFC17AA0621002005F033F80023C1
:10103000032202212848006813F09AF94FF47A70CD
:1010400012F0C7F901200F4908600F49C1F890025A
:1010500055E022A0FFF7CAFB4FF47A7001231A462D
:10106000190500900F48006810F0F7FC00F480109C
:10107000B0B345E068000010500300109A999999A8
:101080009999B93F940242420000424298824242FA
:1010900014000010100400109892980070000010C6
:1010A00018000010A8000010FC0E0010253032645B
:1010B0002530326425303264253032642530326484
:1010C00025303264000000004C000010256C642DB7
:1010D000252E32664B6720008C0000104F4B00001D
:1010E000FFE74FF47A7001231A4659020090FE4838
:1010F000006810F0B2FC00F4007000B100E0A8E756
:1011000000BF0120F94908600020F949C1F89002A8
:101110000120F849C1F89802F7480068006D0128DD
:101120007BD12CE040F2DC5012F053F9F248006819
:10113000C06CF1490968096C48430F9020F04BFFDF
:101140009FEDEE0B53EC102BCDE910019DED100B34
:1011500051EC100B20F0A6FFCDE9140100200FF098
:1011600038FB8DED120B9DED140B53EC102B9DED08
:10117000120B51EC100B20F059FF00D200E0D1E728
:1011800000BF272003F032FC024606211590002004
:1011900004F080FFDB4802688069DA494969D94B6D
:1011A0001B69CDE90031CDE90202D648806815906F
:1011B000D448406814900246AFF21011D248159BF3
:1011C0001CF0DCFB282003F011FC024606211590E0
:1011D000002004F05FFF0020CC4908604FF4FA6063
:1011E00001231A4699030090BF48006810F035FCAF
:1011F0000021BF48C0F894120120BC49091F0860B3
:1012000041F2883001231A46D9030090B64800689D
:1012100010F023FC0020159025E080E01598411C7B
:101220001591322803DD0720B94908701FE001201D
:10123000AE4908600020AE49C1F890024FF47A70C0
:1012400012F0C7F80020A94908600120A849C1F898
:1012500090024FF4FA6001231A46D9030090A24885
:10126000006810F0FAFBAB4800680128D6D000BF38
:101270000120A649091D086000209E49C1F8A0026E
:101280004FF47A7001231A4659040090964800687A
:1012900010F0E3FB41F2883001231A465903009015
:1012A0009148006810F0D9FB212003F09FFB024613
:1012B00006211590002004F0EDFE00200FF089FAC1
:1012C0008DED120B9DED120B1FF045FA8DED140BF9
:1012D0009FED910B53EC102B9DED140B51EC100B6B
:1012E00020F0A4FE3FD218E00EF076FE00200FF0B2
:1012F00070FA8DED120B9DED120B1FF02CFA8DED97
:10130000140B9FED870B53EC102B9DED140B51EC40
:10131000100B20F08BFE00D200E0E5E723E07948D7
:101320000268806977494969764B1B69CDE90031CC
:10133000CDE90202734880681590724840681490A5
:101340000246AFF298217048159B1CF017FB012054
:101350006E49091D086000206649C1F8A00240F6E8
:10136000B83012F036F800BF0023DDE92401584000
:10137000594008437ED00FF04AF88DED080B9DEDE3
:10138000080B51EC100B20F075FB674908606748AB
:1013900090ED000A0846D0ED000A30EE600ABCEE7F
:1013A000C00A10EE100A80B222902298002805DBB5
:1013B00051480068416C2298814201DA0020229055
:1013C000292003F013FB024606210990002004F0B7
:1013D00061FE4C4880699DF88110884205DB4948D0
:1013E00080699DF88110401A05E0464880693C30CC
:1013F0009DF88110401AC0B21F904DA142483D385F
:10140000DDE924231CF0BAFA9DED220AB8EE400A69
:101410003D483D3880ED040A9DED230A80ED050A24
:10142000024644A10AA81CF0A9FA32220AA9464899
:10143000006815F0C1FD48BB239821F083F9CDE980
:101440000801CDE904019DF881209DF880302299A2
:101450001F98CDE90032CDE902019DF88500079083
:101460009DF884000690024638A10AA8079B1CF04C
:1014700085FA01E08CE0A4E00AAA3DA132480068A8
:1014800017F0C4FE3048006816F025F928A10AA814
:10149000DDE924231CF072FA0AAA0921002004F0D5
:1014A000F9FD23A10AA8229A1CF068FA0AAA1121C0
:1014B000002004F0EFFD239821F044F9CDE9080164
:1014C00000E080E09DED080B53EC102B29A10AA849
:1014D0001CF054FA0AAA0B21002004F0DBFD0023C3
:1014E0000322012125484BE0A8000010940242424B
:1014F0000000424200804242500300107B14AE477D
:10150000E17A843FFC0E001059000010988242429C
:10151000700000101C024042000000000000144057
:101520007B14AE47E17A943F6C0000106800001015
:10153000256C6400303A2F496E71756972652F25EC
:10154000732E747874000000D40300102532642ECA
:10155000252D32642D253032643A253032643B2506
:1015600032643B2534643B25362E32663B0A00004C
:1015700025730000252E3166000000008C0000104D
:10158000006812F0F5FE4FF47A7011F022FF00BFF0
:101590000020FE490860FE480068006D08B9FFF7AA
:1015A0003CF9222003F022FA024606211690002080
:1015B00004F070FD4FF4FA7011F00BFFF548FFF7DF
:1015C0008FF9FFF763BBF2480068806B01287FF456
:1015D000F7AA0020F04908600120F049C1F8900204
:1015E0000020EF4908600EF0F7FC0120EA4908608E
:1015F0000020091F08600120E9490860091D0860F2
:101600000020E849C1F8A00241F2883011F0E1FE63
:101610000EF0FDFE8DED140B9DED140B51EC100B37
:1016200020F028FADB4908600846006821F08AF8B3
:10163000CDE914019DED140B53EC102BDAA0FFF74C
:10164000D5F8D448006821F07DF89FEDDC0B53EC11
:10165000102BCDE914019DED140B51EC100B20F073
:10166000E5FC54D2CB48006821F06CF89FEDD50B17
:1016700053EC102BCDE914019DED140B51EC100B24
:1016800020F00EFE43D2C2480068406C014616901E
:10169000CEA0FFF7ABF8002003F0D6FA03E04FF43A
:1016A0007A7011F096FEBA480068406C119020F0F4
:1016B00092FCCDE914010EF0AAFE8DED120B9DED0A
:1016C000140B53EC102B9DED120B51EC100B20F072
:1016D000ADFCE4D3002003F0E3FA0EF098FE8DEDAC
:1016E000140B9DED140B51EC100B20F0C3F9A9491C
:1016F00008600846006821F025F8CDE914019DED49
:10170000140B53EC102BAFF6CC20FFF76FF8012031
:10171000A34908310860E4E10020A149091D0860DF
:10172000232003F063F9024606211690002004F0FE
:10173000B1FC0EE000212491259107F0D7FA24A8EE
:1017400007F0ADFA012800D104E04FF47A7011F0EF
:1017500040FEEFE700BF252003F048F902460621CE
:101760001690002004F096FC01200FF032F80020C3
:101770008B49091D08609948007A8DF884009748C4
:10178000007C8DF885009548007D8DF88000934899
:10179000007E8DF88100DDE92401CDE900018F484C
:1017A000806916908D484069159002468CA117A853
:1017B000169B1CF0E3F817AA0621002004F06AFC2F
:1017C0002CE073480068C06C71490968096C484393
:1017D0000F9020F000FC1FEDB70B53EC102BCDE960
:1017E00010019DED100B51EC100B20F05BFCCDE9CE
:1017F000140100200EF0EDFF8DED120B9DED140B8A
:1018000053EC102B9DED120B51EC100B20F00EFC45
:1018100000D204E04FF4FA7011F0DBFDD1E700BF15
:1018200001205F49091D086000205E49C1F8A0023F
:1018300041F2883011F0CDFD0EF0E9FD8DED140B75
:101840009DED140B51EC100B20F014F96749086062
:10185000504890ED000A0846D0ED000A30EE600ACC
:10186000BCEEC00A10EE100A80B22290292003F0CC
:10187000BDF8024606211690002004F00BFC002360
:10188000DDE9241059405840014376D0534880691F
:101890009DF88110884205DB504880699DF88110D1
:1018A000401A05E04D4880693C309DF88110401A8F
:1018B000C0B21F904EA10AA8DDE924231CF05EF8F7
:1018C00032220AA94F48006815F076FB50BB4E48FB
:1018D0004069079020F036FFCDE90801CDE9040109
:1018E0009DF881209DF880301F992298CDE9003223
:1018F000CDE902109DF8850007909DF884000690C0
:101900000246AFF2B8310AA8079B1CF037F80AAAC2
:10191000AFF2A4313B48006817F078FC3948006802
:1019200015F0D9FE30A10AA8DDE924231CF026F821
:101930000AAA0921002004F0ADFB2BA10AA8229AD3
:101940001CF01CF80AAA1121002004F0A3FB2E4869
:101950004069079020F0F6FECDE908019DED080BE7
:1019600053EC102BAFF2F4310AA81CF007F80AAAC6
:101970000B21002004F08EFB00BF222003F036F87C
:10198000024606211690002040E0000018000010DA
:1019900050030010680000109402424200004242CE
:1019A0009882424200804242666F646465725F774B
:1019B000656967687420252E31660000000000000C
:1019C00000C0724000000000000069C064466F64FF
:1019D00064657220746F202564206700FC0E00107F
:1019E00025643A253032642D256C64006C000010AB
:1019F000303A2F496E71756972652F256C642E74AB
:101A000078740000D40300101C00001004F042FBA6
:101A10004FF4FA7011F0DDFC0EF0F9FC8DED140BB3
:101A20009DED140B51EC100B20F024F8FB490860DD
:101A30000846006820F086FE1FED200B53EC102BAB
:101A4000CDE914019DED140B51EC100B20F0EEFAD2
:101A500044D2F3480068406C01461690AFF29400FF
:101A6000FEF7C4FE002003F0EFF803E04FF47A70B5
:101A700011F0AFFCEA480068406C119020F0ABFA1E
:101A8000CDE914010EF0C3FC8DED120B9DED140B8E
:101A900053EC102B9DED120B51EC100B20F0C6FAFD
:101AA000E4D3002003F0FCF80EF0B1FC8DED140B34
:101AB0009DED140B51EC100B1FF0DCFFD7490860B3
:101AC0000846006820F03EFECDE914019DED140BA0
:101AD00053EC102BAFF69C60FEF788FE0120D14935
:101AE000086019E61CB5D048006828B1CC480068E9
:101AF000006D012800D11CBD0120C9490968086595
:101B0000C7480068016D50200FF05DFDC4480068B3
:101B100090F850201921002004F04FFDC0480068C3
:101B2000806B48B92B2002F061FF04462246062153
:101B3000002004F0AFFA08E02C2002F057FF044622
:101B400022460621002004F0A5FAB84800780328B0
:101B500002DA0220B5490870B5A0FEF747FEB24888
:101B6000042100234A02CDE90010B4A1AFF6D770DA
:101B700011F0B5F900BFBEE700BF8021B24803F005
:101B80007DF904461CB9322011F023FCF5E714B3AB
:101B9000AD484078072804D0A1B2AB4806F023FE38
:101BA00019E0A9484078072815D14FF4C8701BF0F8
:101BB00090FC71B600BFBFF34F8FA448006800F4DB
:101BC000E060A3490843001DA0490860BFF34F8FA0
:101BD00000BF00BFFEE7D0E72DED028BADF59C6D99
:101BE0004FF000080027ADA8AC9000BF4FF0FF31C8
:101BF000012012F03CFB8046B8F1010F7DD1002599
:101C0000002602F095FD06463EB92EB940F28D320F
:101C100090A193A01BF0A6FEE8E7954802F071FDA5
:101C20000446224693A1304602F029FC904890EDEC
:101C3000040A10EE101A084620F084FD41EC180B3F
:101C4000B0EE480AF0EE680A02F043FD0446224670
:101C50008AA1304602F013FC854890ED050A10EE8B
:101C6000101A084620F06EFD41EC180BB0EE480A41
:101C7000F0EE680A02F02DFD0446224682A13046AD
:101C800002F0FDFB7A4890ED060A10EE101A0846A5
:101C900020F058FD41EC180BB0EE480AF0EE680A4F
:101CA00002F017FD0446224679A1304602F0E7FB18
:101CB0006F4890ED070A10EE101A084620F042FD1A
:101CC00041EC180BB0EE480AF0EE680A02F001FD94
:101CD0000446224671A1304602F0D1FB644890EDE3
:101CE000080A10EE101A084620F02CFD41EC180BE3
:101CF000B0EE480AF0EE680A00E0EAE102F0E9FC22
:101D00000446224668A1304602F0B9FB584890EDDF
:101D1000090A10EE101A084620F014FD41EC180BC9
:101D2000B0EE480AF0EE680A02F0D3FC0446224600
:101D300060A1304602F0A3FB4D4890ED0A0A10EE78
:101D4000101A084620F0FEFC41EC180BB0EE480AD1
:101D5000F0EE680A02F0BDFC0446224658A1304667
:101D600002F08DFB424890ED0B0A10EE101A084667
:101D700020F0E8FC41EC180BB0EE480AF0EE680ADF
:101D800002F0A7FC0446224650A1304602F077FB41
:101D90003748303002F0B5FC044622464EA13046AA
:101DA00002F06DFB32483D3002F0ABFC04462246A7
:101DB0004CA1304602F063FB304602F0E3FA0546E0
:101DC0003DB92DB940F29F3222A125A01BF0CAFDDA
:101DD0000CE747A0FEF70AFD4848006847498969B3
:101DE000464A5269CDE9002102904448036944A162
:101DF00082689FA81BF0C2FD0A229FA9AC9815F02B
:101E0000DBF848B92A46AFF69801AC9817F0FEF90E
:101E1000AC9815F060FC87E089E0000068000010D5
:101E200050030010A0824242800000107000001099
:101E3000504F574552204F4E0000000076576F72AA
:101E40006B5F7461736B00007C0E00100CED00E0A2
:101E50000000FA05757365725F7461736B2E630021
:101E60004572726F723A25732C25640D0A000000CA
:101E70001C0000106561726964000000666F6F6489
:101E80005F696E74616B65007765696768740000EF
:101E9000626F64795F6C6F6E67000000626F6479D7
:101EA0005F77696474680000626F64795F68656970
:101EB00067687400626F64795F74656D700000001C
:101EC000656E765F74656D7000000000656E765F0C
:101ED00068756D690000000073746172745F7469E5
:101EE0006D650000656E645F74696D6500000000DB
:101EF0004461746120736176652E2E00FC0E001023
:101F0000303A2F53746174696F6E446174612F2588
:101F10003032642530326425303264253032642515
:101F20003032642E74787400F7A0FEF75FFCFB4833
:101F30000068C06B40F080020023F9480178184621
:101F40000FF0FCF94FF4FA6001231A46194600908D
:101F5000F44800680FF081FD074607F001000028F3
:101F60006FD0F1A006C8AB92AA9128461BF0C6FF1D
:101F700004462046E11704EB51714FEAE109E117ED
:101F800004EB5171C910A4EBC10A4FF0010B11E031
:101F9000E2490968C96B41F4E062ABF10101082331
:101FA00003FB0150012308210FF0C8F90BF10100D8
:101FB00000F0FF0BCB45EBDDD84B1B68DB6B43F42C
:101FC000E0620AF0FF01082303FB095001230FF030
:101FD000B5F909F10100C0B28DF8A802CF48006838
:101FE00001230821C26BAAA80FF0A8F9CB4800680A
:101FF000C06B40F4407201230821CDA00FF09EF980
:1020000040F6B83001231A4602210090C548006806
:102010000FF023FD074607F0020018B1C7A0FEF736
:10202000E5FB27E0C7A0FEF7E1FBC9480068C84907
:102030008969C74A5269CDE900210290C448036901
:1020400000E018E0C3A182689DA81BF097FC0A225B
:102050009DA9AC9814F0B0FF58B92A46AFF6F0210C
:10206000AC9817F0D3F8AC9815F035FBC5A0FEF787
:10207000BDFB00BF25E0B3A0FEF7B8FBB448006885
:10208000B3498969B24A5269CDE900210290B0484A
:102090000369B0A182689FA81BF070FC0A229FA967
:1020A000AC9814F089FF58B92A46AFF63C31AC9889
:1020B00017F0ACF8AC9815F00EFBB2A0FEF796FB4B
:1020C00000BF304600F046FF284613F054F80025C4
:1020D00000BFB8F1020F72D1B2A0FEF787FBB6A124
:1020E00092A815F093FD8246BAF1000F68D1002046
:1020F000069000BFB64992A815F0E5FD8246BAF1F8
:10210000000F02D1B248807D18B9B2A0FEF76EFB75
:10211000B1E0AF4A1632B5A19FA81BF02FFC0122F7
:102120009FA907A814F048FF00287CD100240A9C2E
:10213000204612F0BFFF0646002107A815F0C8FB95
:1021400005AB2246314607A815F04BF80598A0428A
:1021500003D1ACA00599FEF749FB07A815F0BBFA1F
:102160006E480068C06B40F0800200236C48017824
:1021700018460FF0E3F84FF4FA6001231A461946A7
:102180000090684800680FF068FC074607F00100FF
:10219000002867D064A006C8CDE90312254628466A
:1021A000E91705EB51714FEAE109E91705EB5171A8
:1021B000C910A5EBC10102914FF0010B13E05FE0E4
:1021C0005DE056490968C96B41F4E062ABF1010179
:1021D000082303FB0160012308210FF0AFF80BF186
:1021E000010000F0FF0BCB45EBDD4C4B1B68DB6BBC
:1021F00043F4E062029BD9B2082303FB0960012388
:102200000FF09CF809F10100C0B28DF80C004348B2
:10221000006801230821C26B03A80FF08FF83F4824
:102220000068C06B00E022E040F440720123082106
:102230003FA00FF083F840F6B83001231A46022180
:102240000090384800680FF008FC074607F00200CD
:1022500030B170A0FEF7CAFA9FA815F0BCFE00E0EE
:1022600009E000E007E0304612F085FF00BF069865
:10227000401C06903EE700BF92A815F014FD00BF79
:10228000B4E486B000BF4FF0FF3201A96448006893
:1022900010F028FA0128F6D111F03AF800240026AF
:1022A000002500BF01A95F481AF028FD80460024E0
:1022B00009E0601C84B201201BF0CBF842F21070E0
:1022C000844200DD06E0414656481AF0AFFD06465E
:1022D0000228EED000BF012E13D052481AF00DFF95
:1022E00007469DF80D0058B94FA0FEF77FFAC820A9
:1022F0001BF0AFF82846691CCDB2052802DAD1E7F9
:102300009CE09CE096E00000446174612068617389
:10231000206265656E20736176656400500300106D
:1023200070000010A80000105555555555555555CD
:1023300068656C6C6F2021210000000053656E649D
:10234000206F6B0053656E64206572726F720000BF
:10235000FC0E0010303A2F53746174696F6E446143
:1023600074612F6572726F722F253032642530329E
:10237000642530326425303264253032642E74781E
:10238000740000004572726F722064617461207382
:10239000656E7420686173206265656E2073617676
:1023A000656400006461746120726575706C6F61B2
:1023B0006420212121000000303A2F537461746998
:1023C0006F6E446174612F6572726F72000000005D
:1023D000300700106E6F2064617461206E65656463
:1023E00020726575706C6F6164000000303A2F5385
:1023F000746174696F6E446174612F6572726F727B
:102400002F257300726561642025642062797465EC
:102410007300000052652053656E64206F6B0000EE
:10242000A000001000640040676F746F2073746137
:10243000727400003946FDA0FEF7D8F900BF10F015
:10244000BCFEC8201BF005F81DE72DE9F04F89B050
:102450000446002005900490607A022852D120881A
:1024600000F4F06000F07F01002949D1C011082874
:1024700046D2DFE800F0040C45221812352500236F
:1024800002221946EE48006811F072FF39E001217E
:10249000EC4800680FF001FA33E00221E9480068D7
:1024A0000FF0FBF92DE0E8480078032802DA01205C
:1024B000E5490870FEF7B1F923E0FFF713FB20E0D0
:1024C000FEF7ABF90020E14909688863DF4800683E
:1024D000816B38200FF077F8DDA0FEF787F910E068
:1024E000FEF79BF90120D94909688863D74800683D
:1024F000816B38200FF067F8D9A0FEF777F900E07C
:1025000000BF8DE0607A0028FBD1A27A04F10B01B4
:1025100006A81BF003FE0020A17A06AA50542088CA
:1025200000F4F060B0F5807F78D10025002005E050
:1025300004F10B01095C29448DB2401C0728F7DB2C
:10254000E9B2A07C814265D1C9A0FEF74FF9207C99
:102550000A2190FBF1F201FB12010A2290FBF2F03A
:1025600001EB0010C6B2E07B114690FBF1F201FBDB
:1025700012010A2290FBF2F001EB0010C7B2A07B1F
:10258000114690FBF1F201FB12010A2290FBF2F0DE
:1025900001EB001000F0FF08607B114690FBF1F2A8
:1025A00001FB12010A2290FBF2F001EB001000F097
:1025B000FF09607C114690FBF1F201FB12010A2237
:1025C00090FBF2F001EB001000F0FF0A207B1146B7
:1025D00090FBF1F201FB12010A2290FBF2F001EBF9
:1025E000001000F0FF0BE07A114690FBF1F201FBC6
:1025F00012010A2290FBF2F001EB0010C0B24B4630
:1026000052465946CDE90087CDE9026004F0C4FF87
:1026100003E003E09DA0FEF7E9F800E000BF00BF83
:10262000142120461BF053FD09B0BDE8F08F86B0A1
:1026300000BF4FF0FF3201A99B48006810F052F82C
:102640000128F6D101A8FFF700FFF2E708B504F072
:102650008BFF00BF06F0B2F97C48006890F850206C
:102660001921002003F0A9FF784800680023C26BFD
:102670007548017818460EF061FE4FF47A7101201A
:1026800011F0F5FDB8B989A0FEF7B0F88B480088C5
:1026900020BB8B4801680068401C894A10600329F0
:1026A00004DD01221421002003F087FF082100200F
:1026B00003F0B0FF12E08148008858B9002080493B
:1026C000086000221421104603F077FF0821002043
:1026D00003F0A0FF4FF47A7010F07BFE5A480078A8
:1026E000C01E0A2860D2DFE800F0050F19235F2D15
:1026F00037414B55002303221146012004F0FFFD12
:10270000012003F0D5FB50E0002304220321012027
:1027100004F0F5FD012003F0CBFB46E00023052289
:102720000321012004F0EBFD012003F0C1FB3CE09C
:10273000002306220321012004F0E1FD012003F023
:10274000B7FB32E0002308220321012004F0D7FD6B
:10275000012003F0ADFB28E0002309220321012022
:1027600004F0CDFD012003F0A3FB1EE000230A22AC
:102770000321012004F0C3FD012003F099FB14E0C4
:1027800000230B220321012004F0B9FD012003F0F6
:102790008FFB0AE000230C220321012004F0AFFD8F
:1027A000012003F085FB00E000BF00BF4548007832
:1027B000082809D1002308220321012004F09FFDED
:1027C000012003F075FB00E000BF00BF3E48006839
:1027D000E0B904F0C9FE4FF4FA7001231A469902D9
:1027E0000090184800680FF038F9044604F480603F
:1027F00058B116480068416D34A0FDF7F7FF134843
:102800000068C16D35A0FDF7F1FF00BF2E480068DC
:10281000401C2D490860084600680F2190FBF1F22A
:1028200001FB12002849086014E700004572726F2E
:10283000723A205472616E736D69742025640000D1
:102840007C000010A8000010700000105003001061
:102850007045646174612D3E6D6F646530000000E9
:102860007045646174612D3E6D6F646531000000D8
:102870006F6E6C696E652074696D6520757064613A
:102880007465205355434345535321006F6E6C6963
:102890006E652074696D652075706461746520458E
:1028A00052524F52210000009C00001043414E2024
:1028B000446973636F6E6E65637421005C0200107F
:1028C000B400001071000010B00000105265736574
:1028D0007420636F756E742025640000416463206A
:1028E0006F76657274696D6520636F756E742025EF
:1028F000640000008AB000BF4FF0FF326946FE4816
:1029000000680FF0EFFE0128F6D16C4610F000FDD4
:102910000BE000BFF948008800F040000028F9D023
:102920002078F649091D0880641C20780028F0D121
:1029300000BFF248008800F040000028F9D00D20C8
:10294000EE49091D088000BFEC48008800F04000F7
:102950000028F9D00A20E949091D088010F02DFC53
:10296000CAE770B50646E6480068C001E549D1F8F7
:10297000001240EA8110E449D1F8141240EA4110F3
:10298000E149D1F8101240EA0110E049D1F81C12D7
:1029900040EAC100DD49D1F8181240EA8100DB4964
:1029A000D1F8141240EA4100D94909680843D949CD
:1029B0000870D9480078097880EA0105D548007880
:1029C000D5490870002499E045FA04F000F00100B0
:1029D00000286FD0D1480088052809D1CD4800785B
:1029E000204100F0010204F11201052003F0E5FD91
:1029F000022C06D0032C22D0042C3ED0052C79D1F9
:102A000059E0C3480830006860B14FF48041C448C1
:102A100000680FF0B7F84FF40021C14800680EF0CD
:102A20003CFF0BE04FF40021BD4800680FF0AAF80E
:102A30004FF48041BA4800680EF02FFF5BE0B448C5
:102A40000C30006860B14FF40041B54800680FF0E9
:102A500099F84FF48011B24800680EF01EFF0BE0A9
:102A60004FF48011AE4800680FF08CF84FF400412D
:102A7000AB4800680EF011FF3DE0AA48006860B165
:102A80004FF40051A64800680FF07CF84FF4802105
:102A9000A34800680EF001FF0BE04FF48021A0482E
:102AA00000680FF06FF84FF400519D4800680EF079
:102AB000F4FE20E020E09B48001D006860B14FF468
:102AC0000031974800680FF05DF84FF4800194489A
:102AD00000680EF0E2FE0BE04FF4800190480068C1
:102AE0000FF050F84FF400318D4800680EF0D5FE1D
:102AF00001E0FFE700BF00BF601CC4B2082CFFF676
:102B000063AF70BD30B585B0054612F0F4F9002210
:102B1000142164200FF089F9834908600846006891
:102B200030B95622AFF6D441AFF6CC401AF01AFFB6
:102B30000022142164200FF078F97C4908600846CF
:102B4000006830B95922AFF6F441AFF6EC401AF004
:102B500009FF0022282164200FF067F96649086008
:102B60000846006830B95C22AFF61851AFF6105035
:102B70001AF0F8FE0EF084FE694908600846006805
:102B800030B95F22AFF63451AFF62C501AF0EAFE9E
:102B9000AFF2312001231A46C821009064A011F041
:102BA000DFFF6A4908600846006830B96622AFF660
:102BB0005C51AFF654501AF0D5FE10F0FCFE0446FE
:102BC000002003462246012100906048006811F071
:102BD000A5FD5F48012100234022CDE900105DA141
:102BE000AFF2EF2010F07BF95F4802210023802232
:102BF000CDE900105DA1AFF2AB5010F070F95E4866
:102C0000032100238022CDE900105CA1AFF2E15046
:102C100010F065F95D48032100238022CDE9001002
:102C20005BA1AFF6A11010F05AF95D480121002315
:102C30008A02CDE900105BA15E4810F050F95E48B1
:102C4000022100234A02CDE900105CA15E4810F089
:102C500046F932480088B0B95C480068AFF22441B8
:102C6000C26B68461AF08AFE6A460D21002003F006
:102C700011FA56480068006D10B1FEF733FF01E00D
:102C8000FDF7CBFD00BF12F059F95148006810F074
:102C900074F905B030BD70B590B0064600243146D9
:102CA00002A814F0B3FF0546002D23D100210091A6
:102CB000019100BF474902A815F005F8054615B96E
:102CC0004448807D00B989E06A464349414816304E
:102CD0001BF004F840493F481630DDE900231AF0A4
:102CE0004DFEA01C81B23B4A1632022003F0D2F9FD
:102CF000641CDFE782E00000A400001000440040F4
:102D000004824042008040420000414200004042B4
:102D10001002404298000010AC0000105C0200104D
:102D2000A8000010100241429C000010A0000010FA
:102D3000537461747573557064617465735F54691D
:102D40006D65725F48616E646C65000094000010F0
:102D50009000001076556172745F64656275675FFC
:102D60007461736B000000007C000010764C656499
:102D7000305F7461736B0000840000107643616EF5
:102D80005F7265635F7461736B0000008800001000
:102D90007643616E5F73656E645F7461736B000090
:102DA0008C00001076536176655F646174615F74B6
:102DB00061736B00D91B00087800001076446374BF
:102DC00066745F7461736B00791B00085003001018
:102DD0007400001048080010E819000800BF07E060
:102DE000A01C81B2AFF28402022003F053F9641CEC
:102DF000112CF5D302A814F056FF00BF284610B0DE
:102E000070BD70B59AB0044621460DA814F0FEFEC0
:102E10000546002D32D100BF1A490DA814F053FF0A
:102E2000054615B91748807D00B923E01548007A9A
:102E300000F0100098B120461BF060F80646A0197B
:102E4000104A1632AFF648211AF098FD2046FFF7D7
:102E500022FF054605B10DE00020A055DCE7094B37
:102E60001633224608A168461AF088FD684615F018
:102E7000B2F8D1E700BF0DA814F015FF28461AB02C
:102E800070BD00006009001025732F25730000003D
:102E9000FE480068704770B504460D462CB9AC4238
:102EA00001D0012070BD0020FCE70DB90120F9E739
:102EB00005E0207808B90020F4E7641C6D1C207838
:102EC0001AF029FD064628781AF025FD8642F0D032
:102ED00020781AF020FD064628781AF01CFD301ADA
:102EE000E0E770B5044620461BF008F8451C28466C
:102EF000E74909688847060000D170BD2A46214687
:102F000030461BF065F83046F7E730B9E149E04A52
:102F10001160E149E14A11607047016809B1016837
:102F200000E0DC49DA4A1160416809B1416800E01B
:102F3000D949DA4A116000BFEEE710B52820D4491C
:102F40000968884704461CB1282120461BF0BFF8B9
:102F5000204610BD70B5044622E02568A08900F423
:102F6000807020B9A06810B1A068FFF7F3FFA089B6
:102F700000F4807028B9206918B1C849206909682F
:102F80008847A08900F4007028B9206A18B1C349A5
:102F9000206A096888472046C049096888472C4646
:102FA000002CDAD170BD2DE9F0412DED0E8B0546D8
:102FB0000C469FEDBB0BB0EE408AF0EE608A9FEDB1
:102FC000BA0BB0EE40AAF0EE60AA9FEDB50BB0EEE2
:102FD000409AF0EE609A0026012720782D2806D12D
:102FE0009FEDB30BB0EE40AAF0EE60AA641C20780F
:102FF000302800D1641C2078312821DB2078392842
:103000001EDC00BF14F8011BA1F130001EF0E3FF2D
:1030100041EC1B0B9FEDA80B53EC102B51EC180B44
:103020001FF040F841EC1C0B53EC1B2B1EF054FD21
:1030300041EC180B2078302802DB20783928E1DDBC
:1030400020782E282FD1607830282CDB6078392822
:1030500029DC641C00BF14F8011BA1F130001EF034
:10306000BAFF41EC1B0B9FED940B53EC102B51EC72
:10307000180B1FF017F841EC1C0B53EC1B2B1EF028
:103080002BFD41EC180B9FED880B53EC102B51ECF2
:10309000190B1FF06DFA41EC190B2078302802DB78
:1030A00020783928D7DD2078652802D02078452877
:1030B00019D1641C20782B2801D1641C05E02078EC
:1030C0002D2802D14FF0FF37641C06E014F8010BE5
:1030D000303806EB860100EB41062078302802DB11
:1030E00020783928F2DD06FB07F01EF074FF41EC72
:1030F0001E0B53EC192B1EF0EFFC41EC1D0BB0EE38
:103100004D1AF0EE6D1A9FED6C0B1DF025FCB0EE24
:1031100040BAF0EE60BA53EC182B51EC1A0B1EF0CB
:10312000C1FF41EC1C0B53EC1B2B1EF0BBFF41EC11
:10313000180B85ED068B51EC180B1EF01DFF686116
:103140000320E8602046BDEC0E8BBDE8F08101460F
:10315000491E41EA610141EAA10141EA211141EA26
:10316000212141EA2141481C70472DE9F0410446E4
:103170000E460CB1206810B90020BDE8F081A068AF
:1031800006446068B04203DBA16820680844F4E7A5
:103190003046FFF7DCFF074638463D490968884757
:1031A00005463DB93D4920680968884700206060B0
:1031B0002060E2E725B12846D4E900121AF008FFA2
:1031C000364920680968884767602560A0682844F8
:1031D000D3E770B504460CB1206808B9002070BD73
:1031E000A1682068451828461AF088FEA16808449E
:1031F000F5E770B52DED088B06460C46002596EDDB
:10320000060BB0EE408AF0EE608A9FED250B53EC82
:10321000102B51EC180B1EF073FE11D12CB10221B2
:103220002046FFF7A2FF054604E00220184909687E
:1032300088470546002D02D021A000882880E9E0BB
:1032400070691EF0C8FE41EC1B0B53EC182B1FF0ED
:103250008FF941EC1A0BB0EE4A0AF0EE6A0A1DF043
:103260007AFAB0EE409AF0EE609A9FED160B53ECAE
:10327000102B51EC190B1EF0D9FE4BD89FED130B00
:1032800053EC102B51EC180B24E00000B800001098
:10329000BC00001023D8010881D80108C00000102C
:1032A0000000000000000000000000000000F03FEF
:1032B000000000000000F0BF0000000000002440FB
:1032C00030000000000000000000B03C0000C0FF23
:1032D000FFFFDF411EF0AAFE1CD89FEDF80B53EC58
:1032E000102B51EC180B1EF0DBFF13D82CB115215D
:1032F0002046FFF73AFF054604E01520F14909682A
:1033000088470546002D04D0EFA1284672691AF0BF
:1033100035FB7FE02CB140212046FFF726FF054614
:1033200004E04020E749096888470546002D71D030
:10333000B0EE480AF0EE680A1DF01AFAB0EE40BA94
:10334000F0EE60BA53EC182B51EC1B0B1FF010F988
:1033500041EC1A0BB0EE4A0AF0EE6A0A1DF0FBF9D6
:10336000B0EE409AF0EE609A1FED2A0B53EC102B52
:1033700051EC190B1EF05AFE19D8B0EE480AF0EEC7
:10338000680A1DF0E8F9B0EE409AF0EE609A9FED01
:10339000CF0B53EC102B51EC190B1EF047FE06D24D
:1033A00053EC182BCBA128461AF0E8FA32E0B0EE25
:1033B000480AF0EE680A1DF0CEF9B0EE409AF0EE41
:1033C000609A9FEDC60B53EC102B51EC190B1EF0BD
:1033D0002DFE12D3B0EE480AF0EE680A1DF0BBF9DC
:1033E000B0EE409AF0EE609A9FEDBE0B53EC102BBE
:1033F00051EC190B1EF054FF06D253EC182BBBA155
:1034000028461AF0BBFA05E053EC182BB8A1284661
:103410001AF0B4FA2846BDEC088B70BD01460022B4
:103420000878302806DB0878392803DC087830383B
:10343000024415E00878412806DB0878462803DCBA
:103440000878373802440BE00878612806DB0878F2
:10345000662803DC08785738024401E000207047F2
:103460001201491C0878302806DB0878392803DC6B
:1034700008783038024415E00878412806DB0878DF
:10348000462803DC0878373802440BE008786128C6
:1034900006DB0878662803DC08785738024401E028
:1034A0000020DCE71201491C0878302806DB087888
:1034B000392803DC08783038024415E008784128C0
:1034C00006DB0878462803DC0878373802440BE02E
:1034D0000878612806DB0878662803DC0878573806
:1034E000024401E00020BAE71201491C08783028A4
:1034F00006DB0878392803DC08783038024415E008
:103500000878412806DB0878462803DC0878373835
:1035100002440BE00878612806DB0878662803DCA3
:1035200008785738024401E0002098E7104696E7F3
:103530002DE9F05F8346884608F10104002798F8DA
:103540000000222805D06B48C0F800800020BDE8AC
:10355000F09F04E014F8011B5C2900D1641C207862
:10356000222804D0207810B1781C0700F2D1781CF2
:103570005449096888478146B9F1000F01D10020FC
:10358000E5E708F101044D46BEE020785C2804D050
:1035900014F8010B05F8010BB6E0641C20787228C2
:1035A00018D006DC622809D066280BD06E287DD1A1
:1035B0000CE0742812D07528F9D113E0082005F822
:1035C000010B9FE00C2005F8010B9BE00A2005F899
:1035D000010B97E00D2005F8010B93E0092005F899
:1035E000010B8FE0601CFFF719FF0646241DB6F59E
:1035F0005C4F02D3B6F5604F00D306B982E0B6F552
:10360000584F1CD3B6F55C4F19D260785C2802D1B4
:10361000A078752800D075E0E01CFFF7FFFE824619
:10362000A41DBAF55C4F02D3BAF5604F00D369E030
:10363000C6F30901504661F39F2000F58036042748
:10364000802E01D2012708E0B6F5006F01D20227D3
:1036500003E0B6F5803F00D203273D44012F20D080
:10366000022F15D0032F0AD0042F24D106F0BF005B
:1036700040F08001681E05460170B60900BF06F0E3
:10368000BF0040F08001681E05460170B60900BF0A
:1036900006F0BF0040F08001681E05460170B609C3
:1036A00000BF1548C05D3043C1B200E026E0681E8F
:1036B0000546017000BF00BF3D4423E0000000004C
:1036C0000000E0C1BC0000102564000044F3C2E427
:1036D000E4E9634C252E3066000000008DEDB5A0B6
:1036E000F7C6B03E0000000065CDCD412565000065
:1036F00025660000B800001050290208207805F85F
:10370000010B00BF00BF641C2078222803D0207862
:1037100000287FF43AAF002028702078222800D1BA
:10372000641CCBF810900420CBF80C0020460EE768
:103730002DE9F05F804689460027BB46454611E0EB
:103740002878002802DD2878202805DB2878222820
:1037500002D028785C2801D1012000E0002040EA56
:103760000B0B6D1C28780028EAD1BBF1000F22D189
:10377000A5EB0807B9F1000F05D0F91C4846FFF783
:10378000F4FC064604E0F81CFC4909688847064634
:1037900016B90020BDE8F09F3446222004F8010B42
:1037A000414620461AF086FB2220E0550021781C75
:1037B00021543046EEE7B8F1000F16D1B9F1000FF1
:1037C00005D003214846FFF7D0FC064604E003205D
:1037D000EA490968884706460EB90020DAE7E8A1F9
:1037E00030461AF067FB3046D4E745460BE05146B9
:1037F000E4A01AF055FB08B17F1C03E0BAF1200FDA
:1038000000DA7F1D6D1C95F800A0BAF1000F02D000
:10381000781C0700EBD1B9F1000F05D0F91C484620
:10382000FFF7A3FC064604E0F81CD4490968884762
:1038300006460EB90020ADE734464546222004F87E
:10384000010B47E028781F280ADD2878222807D0B6
:1038500028785C2804D015F8010B04F8010B39E036
:103860005C2004F8010B15F8011B8A460C2919D0BD
:1038700006DC082912D0092920D00A2922D115E016
:103880000D2917D0222905D05C291BD15C2004F812
:10389000010B1EE0222004F8010B1AE0622004F85C
:1038A000010B16E0662004F8010B12E06E2004F80C
:1038B000010B0EE0722004F8010B0AE0742004F8FA
:1038C000010B06E05246B1A120461AF057F8641DDC
:1038D00000BF00BF28780028B4D1222004F8010BD3
:1038E000002004F8010B304654E770B504460D463D
:1038F00029462069FFF71CFF70BD00E0401C20B185
:10390000017811B101782029F8DD70472DE9F047E1
:1039100006460C4620787B2804D09E480460002090
:10392000BDE8F0870620F060601CFFF7E6FF044664
:1039300020787D2801D1601CF2E7FFF7FEFA0546EA
:10394000B060B06808B90020EAE72046FFF7D5FF6D
:10395000804641462846FFF7EBFD0746FFF7CDFFBF
:1039600004460CB90020DBE72869286200202861A2
:1039700020783A2803D0874804600020D0E7601CF4
:10398000FFF7BBFF80464146284600F099F80746FE
:10399000FFF7B3FF04460CB90020C1E731E0FFF7A1
:1039A000CCFA070000D1BBE72F607D603D46601C6C
:1039B000FFF7A3FF814649462846FFF7B9FD804639
:1039C000FFF79BFF04460CB90020A9E7286928628D
:1039D0000020286120783A2803D06E480460002037
:1039E0009EE7601CFFF789FF81464946284600F0A4
:1039F00067F88046FFF781FF04460CB900208FE787
:103A000000BF20782C28CAD020787D2801D1601CE6
:103A100086E760480460002082E72DE9F04705460C
:103A20000C4620785B2804D05A4804600020BDE88A
:103A3000F0870520E860601CFFF75FFF04462078F0
:103A40005D2801D1601CF2E7FFF777FA0646A8600F
:103A5000A86808B90020EAE72046FFF74EFF804635
:103A60004146304600F02CF80746FFF746FF044673
:103A70000CB90020DBE717E0FFF75FFA070000D181
:103A8000D5E737607E603E46601CFFF736FF814613
:103A90004946304600F014F88046FFF72EFF0446F2
:103AA0000CB90020C3E700BF20782C28E4D0207890
:103AB0005D2801D1601CBAE7364804600020B6E7F3
:103AC00070B505460C460CB9002070BD042232A129
:103AD00020461AF032FA18B90220E860201DF4E7F7
:103AE00005222FA120461AF028FA18B90020E86014
:103AF000601DEAE704222CA120461AF01EFA20B924
:103B00000120E8606861201DDFE72078222804D1C9
:103B100021462846FFF70CFDD7E720782D2805D051
:103B20002078302807DB2078392804DC2146284615
:103B3000FFF739FAC9E720785B2804D121462846E7
:103B4000FFF76BFFC1E720787B2804D12146284688
:103B5000FFF7DCFEB9E70F4804600020B5E72DE968
:103B6000F04780460D4616460024FFF7E6F9074663
:103B7000002008490860DFB9BDE8F087BC000010EC
:103B800022220000225C080C0A0D09007525303441
:103B900078000000B80000106E756C6C000000002A
:103BA00066616C736500000074727565000000004A
:103BB0004046FFF7A2FE814649463846FFF780FFA0
:103BC00004462CB93846FFF7C5F90020BDE8F08758
:103BD00066B12046FFF791FE0446207830B13846A2
:103BE000FFF7B8F9FE4804600020EFE705B12C604C
:103BF0003846EBE710B50446002211462046FFF791
:103C0000AEFF10BD2DE9FF4F89B0884616461F460E
:103C100000200890079006904FF0070A00250998A9
:103C2000D0F80890002002900190009004E00298E3
:103C3000401C0290D9F80090B9F1000FF7D102981A
:103C4000002835D157B116B108F1040000E0032077
:103C500001463846FFF789FA069009E016B108F1E7
:103C6000040100E003210846DE4909688847069000
:103C7000069818B900200DB0BDE8F08F069C7B2097
:103C800004F8010B66B10A2004F8010B002503E0DB
:103C9000092004F8010B6D1CA8F10100A842F7DC13
:103CA0007D2004F8010B002004F8010B0698E2E7E0
:103CB000002F77D0BD680EB1022000E001208246BF
:103CC0000AF101013846FFF750FA04460CB900200A
:103CD000D1E77B2004F8010B16B10A2004F8010B90
:103CE00000202070B8685044B8600998D0F8089057
:103CF00008F1010868E0B6B141463846FFF735FAE9
:103D000004460CB90020B6E70020039005E0092026
:103D100004F8010B0398401C039003984045F6DB20
:103D2000B8684044B8603946D9F82000FFF700FD74
:103D30003846FFF74EFAB8600EB1022000E00120CD
:103D4000824651463846FFF710FA04460CB9002067
:103D500091E73A2004F8010B16B1092004F8010B91
:103D6000B8685044B8603B4632464146484600F089
:103D700078FA3846FFF72DFAB8600EB1012000E05E
:103D80000020D9F8001009B1012100E0002100EB6A
:103D9000010A0AF101013846FFF7E7F9044614B9B0
:103DA000002068E734E0D9F8000010B12C2004F8B6
:103DB000010B16B10A2004F8010B00202070B8682E
:103DC0005044B860D9F80090B9F1000F93D116B102
:103DD00008F1010000E0022001463846FFF7C5F96E
:103DE00004460CB9002046E74EB1002503E0092047
:103DF00004F8010B6D1CA8F10100A842F7DC7D203E
:103E000004F8010B0020207038682844069005E172
:103E1000029988007349096888470890089808B98A
:103E2000002028E7029988006E49096888470790B2
:103E3000079828B96C4908980968884700201AE74C
:103E40000298810008981AF042F9029881000798B8
:103E50001AF03DF90998D0F8089008F1010806B168
:103E6000C2442EE00021D9F82000FFF761FC049045
:103E7000079941F82500002332464146484600F0A4
:103E8000F0F929466D1C0590089A42F82100049823
:103E900098B1059888B105981AF030F883460498CF
:103EA0001AF02CF80BEB0001891C16B108F1020086
:103EB00000E000200844824401E001200190D9F88C
:103EC0000090B9F1000FCDD1019820B95046454975
:103ED000096888470690069808B901200190019862
:103EE00018B3002514E0079850F8250028B1079969
:103EF00051F825003C4909688847089850F8250082
:103F000028B1089951F825003749096888476D1C80
:103F100002988542E7DB34490798096888473249A7
:103F20000898096888470020A5E67B21069801705B
:103F30000698441C16B10A2004F8010B00202070DA
:103F4000002548E05EB10020039005E0092004F858
:103F5000010B0398401C039003984045F6DB07993A
:103F600051F8250019F0CAFF0090079850F8251065
:103F70002046009A1AF02CF8009804443A2004F8DD
:103F8000010B16B1092004F8010B089850F8251010
:103F9000204619F08FFF089951F8250019F0AEFF5F
:103FA00004440298401EA84202D02C2004F8010BC1
:103FB00016B10A2004F8010B00202070079951F86F
:103FC0002500094909688847089951F825000649DC
:103FD000096888476D1C02988542B3DB024905E0F9
:103FE000B8000010BC000010C0000010079809685D
:103FF0008847F7490898096888474EB1002503E0CB
:10400000092004F8010B6D1CA8F10100A842F7DC9F
:104010007D2004F8010B002004F8010B06982AE625
:104020002DE9FF4F85B092461E464FF0000B05204C
:1040300003900598D0F80880D9460025002002900A
:10404000019003E009F10109D8F80080B8F1000FF0
:10405000F8D1B9F1000F16D12EB103213046FFF788
:1040600084F8834604E00320DA49096888478346D8
:10407000BBF1000F03D0D8A1584619F01BFF5846DA
:1040800009B0BDE8F08F002E57D0B5680121304649
:10409000FFF76BF804460CB90020F1E75B202070B5
:1040A000B068401CB0600598D0F808802EE0334618
:1040B00052460699491C404600F0D3F83046FFF7B7
:1040C00088F8B060D8F80000F0B1BAF1000F01D064
:1040D000022000E0012003900399491C3046FFF7BD
:1040E00044F804460CB90020CAE72C2004F8010B60
:1040F000BAF1000F02D0202004F8010B002020703C
:10410000B16803980844B060D8F80080B8F1000F97
:1041100002D002980028CAD002213046FFF725F8C5
:1041200004460CB90020ABE75D2004F8010B002029
:104130002070306800EB050B91E04FEA8900A5493B
:104140000968884707460FB9002099E74FEA8901B7
:10415000384619F0BCFF0598D0F8088021E000230C
:1041600052460699491C404600F07BF804902946C7
:104170006D1C049847F82100049870B1049819F058
:10418000BDFE801CBAF1000F01D0012100E000212A
:10419000014403980844039001E001200290D8F8FC
:1041A0000080B8F1000F02D002980028D7D0029802
:1041B00020B988490398096888478346BBF1000FF6
:1041C00001D101200290029890B1002508E057F833
:1041D000250020B157F825007D49096888476D1CE6
:1041E0004D45F4DB38467A4909688847002047E79F
:1041F0005B208BF800000BF10104002020700025EB
:1042000021E057F8250019F079FE019057F82510A4
:104210002046019A19F0DCFE01980444A9F101003E
:10422000A8420AD02C2004F8010BBAF1000F02D0EA
:10423000202004F8010B0020207057F82500644965
:10424000096888476D1C4D45DBDB384660490968C5
:1042500088475D2004F8010B002004F8010B584644
:104260000EE72DE9F04104460F4690461D46002614
:1042700014B90020BDE8F081002D49D0207B07282B
:1042800045D2DFE800F0101C04282E343C00052144
:104290002846FEF76AFF064626B1AFF204713046A3
:1042A00019F008FE33E006212846FEF75EFF0646B9
:1042B00026B1AFF21471304619F0FCFD27E005215C
:1042C0002846FEF752FF064626B1AFF2247130466B
:1042D00019F0F0FD1BE029462046FEF78AFF06464E
:1042E00015E029462046FFF700FB06460FE02B4667
:1042F000424639462046FFF793FE064607E02B4626
:10430000424639462046FFF77DFC064600BF37E0AF
:10431000207B072833D2DFE800F00A1004161C22A5
:104320002A00AFF28C70FEF7DCFD064627E0AFF204
:104330009070FEF7D6FD064621E0AFF29470FEF7CE
:10434000D0FD06461BE000212046FEF752FF064640
:1043500015E000212046FFF7C8FA06460FE00023CB
:10436000424639462046FFF75BFE064607E000233B
:10437000424639462046FFF745FC064600BF00BFCF
:10438000304677E710B5044600230122194620463F
:10439000FFF767FF10BD10B5044600231A46194603
:1043A0002046FFF75EFF10BDFEB505460C461646DB
:1043B000204608490968884700900194002002902F
:1043C0006B46324600212846FFF74BFFFEBD00003A
:1043D000C0000010BC0000105B5D000001468A6850
:1043E000002001E0401C1268002AFBD17047024601
:1043F000906801E0491E006808B10029FADC7047A6
:1044000070B505460E46AC6800E024682CB1314614
:10441000206AFEF740FD0028F7D1204670BD0160FC
:104420004860704770B50546FEF787FD04460CB935
:10443000002070BD28222946204619F00EFE0020DB
:104440002062E06840F48070E060002060602060DE
:104450002046EEE770B505460E46AC6806B970BD5D
:104460000CB9AE6009E000E0246814B120680028AF
:10447000FAD131462046FFF7D2FF00BFEFE770B513
:1044800006460D46144604B970BD206A18B1FC49B1
:10449000206A096888472846FEF723FD20622146E6
:1044A0003046FFF7D7FF00BFEEE770B506460D4672
:1044B000144604B970BDA08900F4007028B9206AC0
:1044C00018B1EF49206A096888472562E06840F41E
:1044D0000070E06021463046FFF7BCFF00BFE9E70F
:1044E00070B505460C462046FFF79CFF0646314650
:1044F0002846FFF7AFFF70BD2DE9F04105460E4697
:1045000014462046FFF78EFF07463A4631462846B6
:10451000FFF7B5FFBDE8F08110B502460B46916884
:1045200001E009685B1E09B1002BFADC09B9002023
:1045300010BD486810B1D1E900042060086810B1CE
:10454000D1E9004060609068884201D108689060BD
:104550000020086048600846EAE770B504460D464A
:1045600029462046FFF7D8FF0646FEF7F3FC70BD4C
:104570002DE9F04105460F460026AC6801E0761CA7
:1045800024682CB13946206AFEF785FC0028F6D154
:104590002CB131462846FFF7BFFFBDE8F08100206F
:1045A000FBE770B504460D4629462046FFF7E0FFBD
:1045B0000646FEF7CFFC70BD2DE9F04106460F46DA
:1045C0001446B56801E02D687F1E0DB1002FFADC9E
:1045D0002DB921463046FFF73DFFBDE8F08125604B
:1045E000686860606C60B068A84201D1B46001E0A6
:1045F0006068046000BFF0E72DE9F04106460F4611
:104600001446B56801E02D687F1E0DB1002FFADC5D
:104610000DB9BDE8F0812868206068686060206896
:1046200008B120684460B068A84201D1B46001E0DC
:10463000606804600020686028602846FEF78AFCF5
:1046400000BFE6E72DE9F04105460E4617464FF05C
:104650000008AC6802E008F1010824682CB131467A
:10466000206AFEF718FC0028F5D144B13046FEF769
:1046700038FC38623A4641462846FFF7BDFFBDE8A0
:10468000F08110B5FEF759FC04460CB10220E06041
:10469000204610BD10B5FEF750FC04460CB10120B9
:1046A000E060204610BD10B5FEF747FC04460CB193
:1046B0000020E060204610BD70B50546FEF73DFCC9
:1046C000044624B10DB1012000E00020E060204646
:1046D00070BD10B52DED028BB0EE408AF0EE608A11
:1046E000FEF72BFC044644B10320E06084ED068B0A
:1046F00051EC180B1DF040FC60612046BDEC028BB4
:1047000010BD70B50546FEF718FC04462CB1042018
:10471000E0602846FEF7E5FB2061204670BD10B53D
:10472000FEF70BFC04460CB10520E060204610BDEE
:1047300010B5FEF702FC04460CB10620E0602046EE
:1047400010BD2DE9F0472DED028B07468846002568
:10475000A946FFF7E4FF0646002415E057F82400B9
:104760001DF039FC41EC180BB0EE480AF0EE680A77
:10477000FFF7AFFF05460CB9B56003E02946484690
:10478000FFF74DFEA946641C0EB14445E6DB3046FA
:10479000BDEC028BBDE8F0872DE9F0472DED028BD3
:1047A000074688460025A946FFF7B9FF06460024BC
:1047B0001AE007EB840090ED000A10EE101A08468C
:1047C0001DF0C0FF41EC180BB0EE480AF0EE680A8D
:1047D000FFF77FFF05460CB9B56003E02946484660
:1047E000FFF71DFEA946641C0EB14445E1DB3046CF
:1047F000BDEC028BBDE8F0872DE9F04707468846FF
:104800000025A946FFF78BFF0646002413E007EBBF
:10481000C40090ED001BB0EE410AF0EE610AFFF714
:1048200058FF05460CB9B56003E029464846FFF736
:10483000F6FDA946641C0EB14445E8DB3046BDE8F0
:10484000F0872DE9F047074688460025A946FFF77F
:1048500066FF064600240DE057F82400FFF751FFDD
:1048600005460CB9B56003E029464846FFF7D7FD79
:10487000A946641C0EB14445EEDB3046BDE8F08726
:10488000C00000102DE9F047054689464FF00008AA
:1048900015B90020BDE8F087FEF74FFB04460CB9C0
:1048A0000020F7E7E86820F48070E06068696061E4
:1048B00095ED060B84ED060B286950B12869FEF7CB
:1048C00010FB2061206920B92046FEF743FB002041
:1048D000E0E7286A50B1286AFEF703FB2062206AED
:1048E00020B92046FEF736FB0020D3E7B9F1000FD0
:1048F00001D12046CEE7AF6816E001213846FFF728
:10490000C1FF064626B92046FEF724FB0020C1E77A
:10491000B8F1000F05D0C8F80060C6F80480B046B2
:1049200001E0A660B0463F68002FE6D12046B1E71F
:10493000014655E00278202A01D1401C50E002785F
:10494000092A01D1401C4BE002780D2A01D1401CFC
:1049500046E002780A2A01D1401C41E002782F2A61
:104960000BD142782F2A08D100E0401C0278002A9F
:1049700036D002780A2A33D0F7E702782F2A0ED1F0
:1049800042782A2A0BD100E0401C02782AB1027832
:104990002A2AF9D142782F2AF6D1801C20E0027809
:1049A000222A19D110F8012B01F8012B0AE0027814
:1049B0005C2A03D110F8012B01F8012B10F8012B10
:1049C00001F8012B027812B10278222AEFD110F8F7
:1049D000012B01F8012B03E010F8012B01F8012B4A
:1049E0000278002AA6D10A707047000001460D48DF
:1049F0000068006E022804DA0A480068006E002889
:104A000001DA09A07047312901DC002901DA09A087
:104A1000F8E70A4800EBC100024A1268126E50F82B
:104A20002200EFE7500300106E6F206C616E672E5E
:104A3000000000006E6F207374722E00C40000101E
:104A400000B585B00121084617F0B4F80121042013
:104A500017F0B0F80121082017F0ACF8012102206E
:104A600017F0A8F80121102017F0A4F80121202048
:104A700017F0A0F8F020039000208DF8100003201C
:104A80008DF8110000208DF8130003A9AC4816F032
:104A9000F3FD3020039000208DF8100003208DF8E6
:104AA000110000208DF8130003A9A64816F0E4FDBC
:104AB0004FF48060039001208DF8100000208DF8E5
:104AC000120003208DF8110001208DF8130003A9B6
:104AD0009D4816F0D1FD4FF480619B4816F048FECA
:104AE0000320039000208DF8100003208DF81100A2
:104AF00000208DF8130003A9944816F0BDFD3C205A
:104B0000039001208DF8100000208DF81200032082
:104B10008DF8110001208DF8130003A98C4816F0C0
:104B2000ABFD04218A4816F023FE0821884816F0C0
:104B30001FFE0220039001208DF8100000208DF848
:104B4000120003208DF8110001208DF8130003A935
:104B50007C4816F091FD4FF47070039001208DF8A1
:104B6000100000208DF8120003208DF811000120A4
:104B70008DF8130003A9774816F07EFD4FF40071FD
:104B8000744816F0F5FD4FF40040039001208DF8B5
:104B9000100000208DF8120003208DF81100012074
:104BA0008DF8130003A9664816F066FD10200390E7
:104BB00000208DF8100003208DF8110002208DF8E0
:104BC000130003A9614816F057FD0121880317F06F
:104BD0004BF80421012017F052F91020009000201A
:104BE0008DF8040008208DF8050001208DF80600DE
:104BF000684617F0B5FB0A208DF8080007208DF8ED
:104C0000090001208DF80B0002A816F044FC0120D9
:104C10005149086005B000BD10B540F2DC540EE00B
:104C2000204618F062FC00204B49086040F2DC513D
:104C3000081B18F05AFC01204849C1F8BC022000AA
:104C4000A4F10104ECD110BD10B504460020444984
:104C500008604449087034B1012C0CD0022C0BD0F0
:104C6000032C1AD111E0FFF7D7FF00203A49086062
:104C70003C49087012E000BFFFF7CEFF0020364924
:104C8000086001203749087008E0FFF7C5FF0020E1
:104C9000314908603349087000E000BF00BF10BD13
:104CA00001212F4A116030B1012808D0022807D015
:104CB00003280DD108E001212A4A117009E000BF44
:104CC0000121284A117004E00121234A116000E00B
:104CD00000BF00BF704708B5102017F0A7FB70B3E6
:104CE000102017F0AEFB204800681E2018F0F1FBE2
:104CF0001E48D0F81002012821D11948006808B9CF
:104D0000012000E0002016490860164800780128BC
:104D100001D1114908601648006880B16A464FF415
:104D20000061134800680CF0C1FF009838B14FF0E3
:104D3000805010490860BFF34F8FBFF36F8F08BDDD
:104D40000000024000080240000C02400004024043
:104D50000010024000140240BC02404200004042E9
:104D6000B40241424C020010108240420080404296
:104D7000A800001004ED00E01CB50121102016F081
:104D800019FF0121042016F015FF4020009001209A
:104D90008DF8040000208DF8060003208DF8050032
:104DA00001208DF8070069460F4816F065FC402188
:104DB0000D4816F0DDFC4FF40050009001208DF8F6
:104DC000040000208DF8060003208DF80500012066
:104DD0008DF807006946054816F04EFC4FF4005167
:104DE000024816F0C7FC1CBD00100240000802403B
:104DF00000204149488008804049086040490880B7
:104E0000704701463C4B1B88581CC31700EB93535B
:104E10009B12A0EB83239AB237484088904205D07A
:104E200035480388001DC154001F028070470146A9
:104E300031484088304A128890420FD02E4842882C
:104E4000001D805C08702C4A5288501CC21700EB71
:104E500092529212A0EB8222274B5A80704726482A
:104E6000008800F58060244A5288811AC81701EB37
:104E700090508012A1EB802080B27047F8B50446B4
:104E80000D460026002000902FE06846FFF7CFFF78
:104E90001B48008820B99DF80000EE2800D024E0CF
:104EA00017480088A84208DA9DF8001014480288C4
:104EB0000088401C124B1880A1549DF800000F4937
:104EC000096840EA01200D490860084600686FF44F
:104ED0004031884208D10A48068800200749086006
:104EE000074908803046F8BD00BFFFF7B8FF00282B
:104EF000CBDC0020F7E70000780A00105002001019
:104F000054020010014606E04FF47A7200E0521E8F
:104F1000002AFCDC491E0029F6DC704710B5044667
:104F200003E0207802F0F2FB641C20780028F8D11E
:104F300010BD70B505460E46002404E0285D02F061
:104F4000E5FB601C84B2B442F8DB70BD70B5054669
:104F50000E4600240AE035F81410080A02F0D6FBC9
:104F600015F8140002F0D2FB601C84B2B442F2DBEC
:104F700070BD10B50EF0CCF9EE2002F0C7FB042096
:104F800002F0C4FBFF2002F0C1FBFC2002F0BEFBDC
:104F9000FF2002F0BBFBFF2002F0B8FB0EF00DF982
:104FA00010BD10B504460EF0B3F9EE2002F0AEFBD2
:104FB000412002F0ABFB200A02F0A8FBE0B202F0B5
:104FC000A5FBFF2002F0A2FBFC2002F09FFBFF20CC
:104FD00002F09CFBFF2002F099FB0EF0EEF810BDF2
:104FE00010B504460EF094F9EE2002F08FFB42203B
:104FF00002F08CFB200A02F089FBE0B202F086FB93
:10500000FF2002F083FBFC2002F080FBFF2002F077
:105010007DFBFF2002F07AFB0EF0CFF810BD70B5DB
:1050200006460C4615460EF073F9EE2002F06EFBB4
:10503000A32002F06BFBF0B202F068FB200A02F042
:1050400065FBE0B202F062FB280A02F05FFBE8B207
:1050500002F05CFBFF2002F059FBFC2002F056FB43
:10506000FF2002F053FBFF2002F050FB0EF0A5F8EA
:1050700070BD10B50EF04CF9EE2002F047FB012098
:1050800002F044FBFF2002F041FBFC2002F03EFB5B
:10509000FF2002F03BFBFF2002F038FB0EF08DF802
:1050A00010BD70B504460D460EF032F9EE2002F048
:1050B0002DFB432002F02AFBE0B202F027FBE8B20E
:1050C00002F024FBFF2002F021FBFC2002F01EFB7B
:1050D000FF2002F01BFBFF2002F018FB0EF06DF822
:1050E00070BD70B506460C4615460EF011F9EE205F
:1050F00002F00CFB452002F009FBF0B202F006FBC7
:10510000200A02F003FBE0B202F000FB280A02F0E2
:10511000FDFAE8B202F0FAFAFF2002F0F7FAFC20FA
:1051200002F0F4FAFF2002F0F1FAFF2002F0EEFAAA
:105130000EF043F870BD70B504460D460EF0E8F869
:10514000EE2002F0E3FA442002F0E0FA200A02F036
:10515000DDFAE0B202F0DAFA280A02F0D7FAE8B291
:1051600002F0D4FAFF2002F0D1FAFC2002F0CEFACD
:10517000FF2002F0CBFAFF2002F0C8FA0EF01DF873
:1051800070BD2DE9F04104460D4616461F46DDF878
:1051900018800EF0BDF8EE2002F0B8FA202002F0E0
:1051A000B5FA200A02F0B2FAE0B202F0AFFA280A29
:1051B00002F0ACFAE8B202F0A9FAF0B202F0A6FAF4
:1051C000F8B202F0A3FA4046FFF7A8FEFF2002F073
:1051D0009DFAFC2002F09AFAFF2002F097FAFF20D5
:1051E00002F094FA0DF0E9FFBDE8F0812DE9F041FD
:1051F00006460C4615461F46DDF818800EF088F866
:10520000EE2002F083FA212002F080FAF0B202F0E0
:105210007DFA200A02F07AFAE0B202F077FA280A60
:1052200002F074FAE8B202F071FAF8B202F06EFA23
:1052300008F0FF0002F06AFAFF2002F067FAFC2093
:1052400002F064FAFF2002F061FAFF2002F05EFA39
:105250000DF0B3FFBDE8F08170B504460D460EF0C9
:1052600057F8EE2002F052FA312002F04FFA200AED
:1052700002F04CFAE0B202F049FAE8B202F046FA63
:10528000FF2002F043FAFC2002F040FAFF2002F077
:105290003DFAFF2002F03AFA0DF08FFF70BD2DE9C4
:1052A000F04104460D4616461F460EF031F8EE203A
:1052B00002F02CFA322002F029FA200A02F026FA33
:1052C000E0B202F023FA280A02F020FAE8B202F073
:1052D0001DFA300A02F01AFAF0B202F017FAF8B228
:1052E00002F014FAFF2002F011FAFC2002F00EFA8C
:1052F000FF2002F00BFAFF2002F008FA0DF05DFF2C
:10530000BDE8F0812DE9F05F04460D4616461F46C4
:10531000DDE90CABDDE90A890DF0FAFFEE2002F0C1
:10532000F5F9332002F0F2F9200A02F0EFF9E0B2C9
:1053300002F0ECF9280A02F0E9F9E8B202F0E6F925
:10534000300A02F0E3F9F0B202F0E0F9380A02F0B4
:10535000DDF9F8B202F0DAF94FEA182002F0D6F9D6
:1053600008F0FF0002F0D2F94FEA192002F0CEF95E
:1053700009F0FF0002F0CAF94FEA1A2002F0C6F95C
:105380000AF0FF0002F0C2F90BF0FF0002F0BEF9D4
:10539000FF2002F0BBF9FC2002F0B8F9FF2002F078
:1053A000B5F9FF2002F0B2F90DF007FFBDE8F09F5C
:1053B0002DE9F04104460D4616461F46DDF81880DB
:1053C0000DF0A6FFEE2002F0A1F9802002F09EF978
:1053D000200A02F09BF9E0B202F098F9280A02F0E4
:1053E00095F9E8B202F092F9300A02F08FF9F0B2C2
:1053F00002F08CF9F8B202F089F908F0FF0002F02F
:1054000085F9FF2002F082F9FC2002F07FF9FF20ED
:1054100002F07CF9FF2002F079F90DF0CEFEBDE834
:10542000F08170B504460D460DF072FFEE2002F0DB
:105430006DF9502002F06AF9200A02F067F9E0B233
:1054400002F064F9280A02F061F9E8B202F05EF9AC
:10545000FF2002F05BF9FC2002F058F9FF2002F077
:1054600055F9FF2002F052F90DF0A7FE70BD2DE9AD
:10547000F04104460D4616461F460DF049FFEE204A
:1054800002F044F9512002F041F9200A02F03EF9FD
:10549000E0B202F03BF9280A02F038F9E8B202F073
:1054A00035F9300A02F032F9F0B202F02FF9380A79
:1054B00002F02CF9F8B202F029F9FF2002F026F9E7
:1054C000FC2002F023F9FF2002F020F9FF2002F077
:1054D0001DF90DF072FEBDE8F08170B505460E466F
:1054E00014460DF015FFEE2002F010F9632002F0D3
:1054F0000DF9E8B202F00AF94FF6FF7000EA440134
:105500003046FFF723FDFF2002F000F9FC2002F0F7
:10551000FDF8FF2002F0FAF8FF2002F0F7F80DF096
:105520004CFE70BD2DE9F04104460D4616461F465F
:105530000DF0EEFEEE2002F0E9F8592002F0E6F858
:10554000200A02F0E3F8E0B202F0E0F8280A02F0E4
:10555000DDF8E8B202F0DAF839463046FFF7F6FC3B
:10556000FF2002F0D3F8FC2002F0D0F8FF2002F078
:10557000CDF8FF2002F0CAF80DF01FFEBDE8F08163
:105580002DE9F04104460D4616461F460DF0C0FEBB
:10559000EE2002F0BBF8752002F0B8F8200A02F005
:1055A000B5F8E0B202F0B2F8280A02F0AFF8E8B2BB
:1055B00002F0ACF839463046FFF7C8FCFF2002F095
:1055C000A5F8FC2002F0A2F8FF2002F09FF8FF20CF
:1055D00002F09CF80DF0F1FDBDE8F0812DE9F041FD
:1055E00004460D4616461F460DF092FEEE2002F0D0
:1055F0008DF8762002F08AF8200A02F087F8E0B2EF
:1056000002F084F8280A02F081F8E8B202F07EF88D
:1056100039463046FFF79AFCFF2002F077F8FC206D
:1056200002F074F8FF2002F071F8FF2002F06EF82B
:105630000DF0C3FDBDE8F0812DE9F04104460D46B3
:1056400016461F460DF064FEEE2002F05FF877204C
:1056500002F05CF8E0B202F059F8E8B202F056F855
:10566000F0B202F053F8F8B202F050F8FF2002F066
:105670004DF8FC2002F04AF8FF2002F047F8FF2026
:1056800002F044F80DF099FDBDE8F08170B50546D3
:105690000C460DF03DFEEE2002F038F8682002F0D6
:1056A00035F84FF6FF7000EA44012846FFF74EFC3C
:1056B000FF2002F02BF8FC2002F028F8FF2002F077
:1056C00025F8FF2002F022F80DF077FD70BD70B5CF
:1056D00005460C460DF01CFEEE2002F017F869207E
:1056E00002F014F84FF6FF7000EA44012846FFF775
:1056F0002DFCFF2002F00AF8FC2002F007F8FF2042
:1057000002F004F8FF2002F001F80DF056FD70BD24
:1057100070B504460D4616460DF0FAFDEE2001F078
:10572000F5FF522001F0F2FF200A01F0EFFFE0B296
:1057300001F0ECFF280A01F0E9FFE8B201F0E6FF12
:10574000300A01F0E3FFF0B201F0E0FFFF2001F0CA
:10575000DDFFFC2001F0DAFFFF2001F0D7FFFF2082
:1057600001F0D4FF0DF029FD70BD70B504460D4663
:1057700016460DF0CDFDEE2001F0C8FF532001F0DC
:10578000C5FF200A01F0C2FFE0B201F0BFFF280A06
:1057900001F0BCFFE8B201F0B9FF300A01F0B6FF3A
:1057A000F0B201F0B3FFFF2001F0B0FFFC2001F0E8
:1057B000ADFFFF2001F0AAFFFF2001F0A7FF0DF0D1
:1057C000FCFC70BD2DE9F04104460D4616461F460F
:1057D000DDF818800DF09CFDEE2001F097FF6720AA
:1057E00001F094FF200A01F091FFE0B201F08EFF7A
:1057F000280A01F08BFFE8B201F088FF300A01F0BF
:1058000085FFF0B201F082FF380A01F07FFFF8B2A5
:1058100001F07CFF4FEA182001F078FF08F0FF004C
:1058200001F074FFFF2001F071FFFC2001F06EFF1A
:10583000FF2001F06BFFFF2001F068FF0DF0BDFCC1
:10584000BDE8F0812DE9F04104460D4616461F469D
:105850000DF05EFDEE2001F059FF542001F056FFDF
:10586000200A01F053FFE0B201F050FF280A01F0D6
:105870004DFFE8B201F04AFF300A01F047FFF0B2F5
:1058800001F044FF380A01F041FFF8B201F03EFF99
:10589000FF2001F03BFFFC2001F038FFFF2001F06A
:1058A00035FFFF2001F032FF0DF087FCBDE8F081ED
:1058B0002DE9F04104460D4616461F460DF028FD21
:1058C000EE2001F023FF552001F020FF200A01F017
:1058D0001DFFE0B201F01AFF280A01F017FFE8B23D
:1058E00001F014FF300A01F011FFF0B201F00EFFD9
:1058F000380A01F00BFFF8B201F008FFFF2001F0B9
:1059000005FFFC2001F002FFFF2001F0FFFEFF2059
:1059100001F0FCFE0DF051FCBDE8F0812DE9F041F5
:1059200004460D4616461F460DF0F2FCEE2001F02F
:10593000EDFE562001F0EAFE200A01F0E7FEE0B29B
:1059400001F0E4FE280A01F0E1FEE8B201F0DEFE1B
:10595000300A01F0DBFEF0B201F0D8FE380A01F0A7
:10596000D5FEF8B201F0D2FEFF2001F0CFFEFC2000
:1059700001F0CCFEFF2001F0C9FEFF2001F0C6FEC1
:105980000DF01BFCBDE8F0812DE9F04104460D4609
:1059900016461F460DF0BCFCEE2001F0B7FE572066
:1059A00001F0B4FE200A01F0B1FEE0B201F0AEFE5B
:1059B000280A01F0ABFEE8B201F0A8FE300A01F0BF
:1059C000A5FEF0B201F0A2FE380A01F09FFEF8B287
:1059D00001F09CFEFF2001F099FEFC2001F096FEF4
:1059E000FF2001F093FEFF2001F090FE0DF0E5FB9B
:1059F000BDE8F08110B504460DF08AFCEE2001F000
:105A000085FE602001F082FEE0B201F07FFEFF2003
:105A100001F07CFEFC2001F079FEFF2001F076FE13
:105A2000FF2001F073FE0DF0C8FB10BD10B5044659
:105A30000DF06EFCEE2001F069FE612001F066FEC3
:105A4000E0B201F063FEFF2001F060FEFC2001F0F7
:105A50005DFEFF2001F05AFEFF2001F057FE0DF021
:105A6000ACFB10BD2DE9F04104460D4616461F461D
:105A70000DF04EFCEE2001F049FE652001F046FEDF
:105A8000200A01F043FEE0B201F040FE280A01F0D6
:105A90003DFEE8B201F03AFE300A01F037FEF0B206
:105AA00001F034FE380A01F031FEF8B201F02EFEAA
:105AB000FF2001F02BFEFC2001F028FEFF2001F06A
:105AC00025FEFF2001F022FE0DF077FBBDE8F081FE
:105AD0002DE9F0410746884615461E4600240FB1C1
